{
  "contractName": "Study",
  "abi": [
    {
      "inputs": [
        {
          "internalType": "uint256",
          "name": "a",
          "type": "uint256"
        },
        {
          "internalType": "uint256",
          "name": "b",
          "type": "uint256"
        }
      ],
      "name": "getC",
      "outputs": [
        {
          "internalType": "uint256",
          "name": "",
          "type": "uint256"
        }
      ],
      "stateMutability": "view",
      "type": "function"
    },
    {
      "inputs": [],
      "name": "getMsg",
      "outputs": [
        {
          "internalType": "string",
          "name": "",
          "type": "string"
        }
      ],
      "stateMutability": "view",
      "type": "function"
    }
  ],
  "bytecode": "0x60806040526040518060400160405280601c81526020017f48656c6c6f2c205468697320697320536d617274436f6e7472616374000000008152506000908161004891906102ab565b5034801561005557600080fd5b5061037d565b600081519050919050565b7f4e487b7100000000000000000000000000000000000000000000000000000000600052604160045260246000fd5b7f4e487b7100000000000000000000000000000000000000000000000000000000600052602260045260246000fd5b600060028204905060018216806100dc57607f821691505b6020821081036100ef576100ee610095565b5b50919050565b60008190508160005260206000209050919050565b60006020601f8301049050919050565b600082821b905092915050565b6000600883026101577fffffffffffffffffffffffffffffffffffffffffffffffffffffffffffffffff8261011a565b610161868361011a565b95508019841693508086168417925050509392505050565b6000819050919050565b6000819050919050565b60006101a86101a361019e84610179565b610183565b610179565b9050919050565b6000819050919050565b6101c28361018d565b6101d66101ce826101af565b848454610127565b825550505050565b600090565b6101eb6101de565b6101f68184846101b9565b505050565b5b8181101561021a5761020f6000826101e3565b6001810190506101fc565b5050565b601f82111561025f57610230816100f5565b6102398461010a565b81016020851015610248578190505b61025c6102548561010a565b8301826101fb565b50505b505050565b600082821c905092915050565b600061028260001984600802610264565b1980831691505092915050565b600061029b8383610271565b9150826002028217905092915050565b6102b48261005b565b67ffffffffffffffff8111156102cd576102cc610066565b5b6102d782546100c4565b6102e282828561021e565b600060209050601f8311600181146103155760008415610303578287015190505b61030d858261028f565b865550610375565b601f198416610323866100f5565b60005b8281101561034b57848901518255600182019150602085019450602081019050610326565b868310156103685784890151610364601f891682610271565b8355505b6001600288020188555050505b505050505050565b6103ac8061038c6000396000f3fe608060405234801561001057600080fd5b50600436106100365760003560e01c8063b5fdeb231461003b578063dc9e8ddd14610059575b600080fd5b610043610089565b60405161005091906101ca565b60405180910390f35b610073600480360381019061006e9190610227565b61011b565b6040516100809190610276565b60405180910390f35b606060008054610098906102c0565b80601f01602080910402602001604051908101604052809291908181526020018280546100c4906102c0565b80156101115780601f106100e657610100808354040283529160200191610111565b820191906000526020600020905b8154815290600101906020018083116100f457829003601f168201915b5050505050905090565b600081836101299190610320565b905092915050565b600081519050919050565b600082825260208201905092915050565b60005b8381101561016b578082015181840152602081019050610150565b8381111561017a576000848401525b50505050565b6000601f19601f8301169050919050565b600061019c82610131565b6101a6818561013c565b93506101b681856020860161014d565b6101bf81610180565b840191505092915050565b600060208201905081810360008301526101e48184610191565b905092915050565b600080fd5b6000819050919050565b610204816101f1565b811461020f57600080fd5b50565b600081359050610221816101fb565b92915050565b6000806040838503121561023e5761023d6101ec565b5b600061024c85828601610212565b925050602061025d85828601610212565b9150509250929050565b610270816101f1565b82525050565b600060208201905061028b6000830184610267565b92915050565b7f4e487b7100000000000000000000000000000000000000000000000000000000600052602260045260246000fd5b600060028204905060018216806102d857607f821691505b6020821081036102eb576102ea610291565b5b50919050565b7f4e487b7100000000000000000000000000000000000000000000000000000000600052601160045260246000fd5b600061032b826101f1565b9150610336836101f1565b9250827fffffffffffffffffffffffffffffffffffffffffffffffffffffffffffffffff0382111561036b5761036a6102f1565b5b82820190509291505056fea2646970667358221220d37a7ee428697acd082ba8027f3d56f6193d01d26a6687e0e139e3ac5e7d080364736f6c634300080f0033",
  "immutableReferences": {},
  "source": "// SPDX-License-Identifier: MIT\npragma solidity >=0.4.22 <0.9.0;\n\ncontract Study {\n\n    string msg = \"Hello, This is SmartContract\";\n\n    function getC(uint256 a,uint256 b)\n    external \n    view\n    returns (uint256) {\n        return a+b;\n    }\n\n    function getMsg()\n    external\n    view\n    returns (string memory) {\n        return msg;\n    }\n}",
  "sourcePath": "/Users/kangjuhyup/Documents/SolidityProjects/studyTruffle/contracts/Study.sol",
  "compiler": {
    "name": "solc",
    "version": "0.8.15+commit.e14f2714.Emscripten.clang"
  },
  "schemaVersion": "3.4.7",
  "updatedAt": "2022-08-12T07:20:40.151Z",
  "devdoc": {
    "kind": "dev",
    "methods": {},
    "version": 1
  },
  "userdoc": {
    "kind": "user",
    "methods": {},
    "version": 1
  }
}